{
  "_format": "hh-sol-artifact-1",
  "contractName": "DiplomaGuildProps",
  "sourceName": "contracts/DiplomaGuildProps.sol",
  "abi": [
    {
      "inputs": [
        {
          "internalType": "uint256",
          "name": "_id",
          "type": "uint256"
        },
        {
          "internalType": "string",
          "name": "_name",
          "type": "string"
        },
        {
          "internalType": "address",
          "name": "_student",
          "type": "address"
        }
      ],
      "name": "addProposal",
      "outputs": [],
      "stateMutability": "nonpayable",
      "type": "function"
    },
    {
      "inputs": [],
      "name": "getAllProposals",
      "outputs": [
        {
          "components": [
            {
              "internalType": "uint256",
              "name": "id",
              "type": "uint256"
            },
            {
              "internalType": "string",
              "name": "name",
              "type": "string"
            },
            {
              "internalType": "address",
              "name": "student",
              "type": "address"
            }
          ],
          "internalType": "struct DiplomaGuildProps.Proposal[]",
          "name": "",
          "type": "tuple[]"
        }
      ],
      "stateMutability": "view",
      "type": "function"
    },
    {
      "inputs": [
        {
          "internalType": "uint256",
          "name": "index",
          "type": "uint256"
        }
      ],
      "name": "getProposal",
      "outputs": [
        {
          "internalType": "uint256",
          "name": "",
          "type": "uint256"
        },
        {
          "internalType": "string",
          "name": "",
          "type": "string"
        }
      ],
      "stateMutability": "view",
      "type": "function"
    },
    {
      "inputs": [
        {
          "internalType": "uint256",
          "name": "",
          "type": "uint256"
        }
      ],
      "name": "proposals",
      "outputs": [
        {
          "internalType": "uint256",
          "name": "id",
          "type": "uint256"
        },
        {
          "internalType": "string",
          "name": "name",
          "type": "string"
        },
        {
          "internalType": "address",
          "name": "student",
          "type": "address"
        }
      ],
      "stateMutability": "view",
      "type": "function"
    },
    {
      "inputs": [
        {
          "internalType": "uint256",
          "name": "index",
          "type": "uint256"
        }
      ],
      "name": "removeProposal",
      "outputs": [],
      "stateMutability": "nonpayable",
      "type": "function"
    }
  ],
  "bytecode": "0x608060405234801561001057600080fd5b50610b0b806100206000396000f3fe608060405234801561001057600080fd5b50600436106100575760003560e01c8063013cf08b1461005c5780634ce4e6c714610087578063c7f758a81461009c578063cceb68f5146100bd578063fad35844146100d2575b600080fd5b61006f61006a366004610626565b6100e5565b60405161007e93929190610685565b60405180910390f35b61009a610095366004610626565b6101ac565b005b6100af6100aa366004610626565b6102d3565b60405161007e9291906106b6565b6100c56103fb565b60405161007e91906106d7565b61009a6100e0366004610793565b61050c565b600081815481106100f557600080fd5b6000918252602090912060039091020180546001820180549193509061011a9061085e565b80601f01602080910402602001604051908101604052809291908181526020018280546101469061085e565b80156101935780601f1061016857610100808354040283529160200191610193565b820191906000526020600020905b81548152906001019060200180831161017657829003601f168201915b505050600290930154919250506001600160a01b031683565b60005481106101f75760405162461bcd60e51b8152602060048201526012602482015271496e646578206f7574206f662072616e676560701b60448201526064015b60405180910390fd5b6000805461020790600190610898565b81548110610217576102176108bf565b906000526020600020906003020160008281548110610238576102386108bf565b60009182526020909120825460039092020190815560018082019061025f90840182610924565b50600291820154910180546001600160a01b0319166001600160a01b03909216919091179055600080548061029657610296610a05565b600082815260208120600360001990930192830201818155906102bc60018301826105d0565b5060020180546001600160a01b0319169055905550565b60008054606090831061031d5760405162461bcd60e51b8152602060048201526012602482015271496e646578206f7574206f662072616e676560701b60448201526064016101ee565b60008381548110610330576103306108bf565b90600052602060002090600302016000015460008481548110610355576103556108bf565b90600052602060002090600302016001018080546103729061085e565b80601f016020809104026020016040519081016040528092919081815260200182805461039e9061085e565b80156103eb5780601f106103c0576101008083540402835291602001916103eb565b820191906000526020600020905b8154815290600101906020018083116103ce57829003601f168201915b5050505050905091509150915091565b60606000805480602002602001604051908101604052809291908181526020016000905b8282101561050357838290600052602060002090600302016040518060600160405290816000820154815260200160018201805461045c9061085e565b80601f01602080910402602001604051908101604052809291908181526020018280546104889061085e565b80156104d55780601f106104aa576101008083540402835291602001916104d5565b820191906000526020600020905b8154815290600101906020018083116104b857829003601f168201915b5050509183525050600291909101546001600160a01b0316602091820152908252600192909201910161041f565b50505050905090565b60408051606081018252848152602081018481526001600160a01b0384169282019290925260008054600181018255908052815160039091027f290decd9548b62a8d60345a988386fc84ba6bc95484008f6362f93160ef3e56381019182559251919283927f290decd9548b62a8d60345a988386fc84ba6bc95484008f6362f93160ef3e564909101906105a09082610a1b565b5060409190910151600290910180546001600160a01b0319166001600160a01b0390921691909117905550505050565b5080546105dc9061085e565b6000825580601f106105ec575050565b601f01602090049060005260206000209081019061060a919061060d565b50565b5b80821115610622576000815560010161060e565b5090565b60006020828403121561063857600080fd5b5035919050565b6000815180845260005b8181101561066557602081850181015186830182015201610649565b506000602082860101526020601f19601f83011685010191505092915050565b83815260606020820152600061069e606083018561063f565b905060018060a01b0383166040830152949350505050565b8281526040602082015260006106cf604083018461063f565b949350505050565b60006020808301818452808551808352604092508286019150828160051b87010184880160005b8381101561075357603f19898403018552815160608151855288820151818a87015261072c8287018261063f565b928901516001600160a01b03169589019590955250948701949250908601906001016106fe565b509098975050505050505050565b634e487b7160e01b600052604160045260246000fd5b80356001600160a01b038116811461078e57600080fd5b919050565b6000806000606084860312156107a857600080fd5b83359250602084013567ffffffffffffffff808211156107c757600080fd5b818601915086601f8301126107db57600080fd5b8135818111156107ed576107ed610761565b604051601f8201601f19908116603f0116810190838211818310171561081557610815610761565b8160405282815289602084870101111561082e57600080fd5b82602086016020830137600060208483010152809650505050505061085560408501610777565b90509250925092565b600181811c9082168061087257607f821691505b60208210810361089257634e487b7160e01b600052602260045260246000fd5b50919050565b818103818111156108b957634e487b7160e01b600052601160045260246000fd5b92915050565b634e487b7160e01b600052603260045260246000fd5b601f82111561091f57600081815260208120601f850160051c810160208610156108fc5750805b601f850160051c820191505b8181101561091b57828155600101610908565b5050505b505050565b81810361092f575050565b610939825461085e565b67ffffffffffffffff81111561095157610951610761565b6109658161095f845461085e565b846108d5565b6000601f82116001811461099957600083156109815750848201545b600019600385901b1c1916600184901b1784556109fe565b600085815260209020601f19841690600086815260209020845b838110156109d357828601548255600195860195909101906020016109b3565b50858310156109f15781850154600019600388901b60f8161c191681555b50505060018360011b0184555b5050505050565b634e487b7160e01b600052603160045260246000fd5b815167ffffffffffffffff811115610a3557610a35610761565b610a438161095f845461085e565b602080601f831160018114610a785760008415610a605750858301515b600019600386901b1c1916600185901b17855561091b565b600085815260208120601f198616915b82811015610aa757888601518255948401946001909101908401610a88565b5085821015610ac55787850151600019600388901b60f8161c191681555b5050505050600190811b0190555056fea2646970667358221220904642a66e9d76c1900125ef651cb46b521e26cadf61fcb7904c256e051da7ac64736f6c63430008120033",
  "linkReferences": {},
  "deployedLinkReferences": {}
}