{
  "_format": "hh-sol-artifact-1",
  "contractName": "DiplomaGuildNFT",
  "sourceName": "contracts/DiplomaGuildNFT.sol",
  "abi": [
    {
      "inputs": [],
      "stateMutability": "nonpayable",
      "type": "constructor"
    },
    {
      "anonymous": false,
      "inputs": [
        {
          "indexed": true,
          "internalType": "address",
          "name": "owner",
          "type": "address"
        },
        {
          "indexed": true,
          "internalType": "address",
          "name": "approved",
          "type": "address"
        },
        {
          "indexed": true,
          "internalType": "uint256",
          "name": "tokenId",
          "type": "uint256"
        }
      ],
      "name": "Approval",
      "type": "event"
    },
    {
      "anonymous": false,
      "inputs": [
        {
          "indexed": true,
          "internalType": "address",
          "name": "owner",
          "type": "address"
        },
        {
          "indexed": true,
          "internalType": "address",
          "name": "operator",
          "type": "address"
        },
        {
          "indexed": false,
          "internalType": "bool",
          "name": "approved",
          "type": "bool"
        }
      ],
      "name": "ApprovalForAll",
      "type": "event"
    },
    {
      "anonymous": false,
      "inputs": [
        {
          "indexed": false,
          "internalType": "address",
          "name": "account",
          "type": "address"
        }
      ],
      "name": "Paused",
      "type": "event"
    },
    {
      "anonymous": false,
      "inputs": [
        {
          "indexed": true,
          "internalType": "bytes32",
          "name": "role",
          "type": "bytes32"
        },
        {
          "indexed": true,
          "internalType": "bytes32",
          "name": "previousAdminRole",
          "type": "bytes32"
        },
        {
          "indexed": true,
          "internalType": "bytes32",
          "name": "newAdminRole",
          "type": "bytes32"
        }
      ],
      "name": "RoleAdminChanged",
      "type": "event"
    },
    {
      "anonymous": false,
      "inputs": [
        {
          "indexed": true,
          "internalType": "bytes32",
          "name": "role",
          "type": "bytes32"
        },
        {
          "indexed": true,
          "internalType": "address",
          "name": "account",
          "type": "address"
        },
        {
          "indexed": true,
          "internalType": "address",
          "name": "sender",
          "type": "address"
        }
      ],
      "name": "RoleGranted",
      "type": "event"
    },
    {
      "anonymous": false,
      "inputs": [
        {
          "indexed": true,
          "internalType": "bytes32",
          "name": "role",
          "type": "bytes32"
        },
        {
          "indexed": true,
          "internalType": "address",
          "name": "account",
          "type": "address"
        },
        {
          "indexed": true,
          "internalType": "address",
          "name": "sender",
          "type": "address"
        }
      ],
      "name": "RoleRevoked",
      "type": "event"
    },
    {
      "anonymous": false,
      "inputs": [
        {
          "indexed": true,
          "internalType": "address",
          "name": "from",
          "type": "address"
        },
        {
          "indexed": true,
          "internalType": "address",
          "name": "to",
          "type": "address"
        },
        {
          "indexed": true,
          "internalType": "uint256",
          "name": "tokenId",
          "type": "uint256"
        }
      ],
      "name": "Transfer",
      "type": "event"
    },
    {
      "anonymous": false,
      "inputs": [
        {
          "indexed": false,
          "internalType": "address",
          "name": "account",
          "type": "address"
        }
      ],
      "name": "Unpaused",
      "type": "event"
    },
    {
      "inputs": [],
      "name": "DEFAULT_ADMIN_ROLE",
      "outputs": [
        {
          "internalType": "bytes32",
          "name": "",
          "type": "bytes32"
        }
      ],
      "stateMutability": "view",
      "type": "function"
    },
    {
      "inputs": [],
      "name": "MINTER_ROLE",
      "outputs": [
        {
          "internalType": "bytes32",
          "name": "",
          "type": "bytes32"
        }
      ],
      "stateMutability": "view",
      "type": "function"
    },
    {
      "inputs": [],
      "name": "PAUSER_ROLE",
      "outputs": [
        {
          "internalType": "bytes32",
          "name": "",
          "type": "bytes32"
        }
      ],
      "stateMutability": "view",
      "type": "function"
    },
    {
      "inputs": [
        {
          "internalType": "address",
          "name": "to",
          "type": "address"
        },
        {
          "internalType": "uint256",
          "name": "tokenId",
          "type": "uint256"
        }
      ],
      "name": "approve",
      "outputs": [],
      "stateMutability": "nonpayable",
      "type": "function"
    },
    {
      "inputs": [
        {
          "internalType": "address",
          "name": "owner",
          "type": "address"
        }
      ],
      "name": "balanceOf",
      "outputs": [
        {
          "internalType": "uint256",
          "name": "",
          "type": "uint256"
        }
      ],
      "stateMutability": "view",
      "type": "function"
    },
    {
      "inputs": [
        {
          "internalType": "uint256",
          "name": "tokenId",
          "type": "uint256"
        }
      ],
      "name": "burn",
      "outputs": [],
      "stateMutability": "nonpayable",
      "type": "function"
    },
    {
      "inputs": [
        {
          "internalType": "uint256",
          "name": "tokenId",
          "type": "uint256"
        }
      ],
      "name": "getApproved",
      "outputs": [
        {
          "internalType": "address",
          "name": "",
          "type": "address"
        }
      ],
      "stateMutability": "view",
      "type": "function"
    },
    {
      "inputs": [
        {
          "internalType": "bytes32",
          "name": "role",
          "type": "bytes32"
        }
      ],
      "name": "getRoleAdmin",
      "outputs": [
        {
          "internalType": "bytes32",
          "name": "",
          "type": "bytes32"
        }
      ],
      "stateMutability": "view",
      "type": "function"
    },
    {
      "inputs": [
        {
          "internalType": "bytes32",
          "name": "role",
          "type": "bytes32"
        },
        {
          "internalType": "address",
          "name": "account",
          "type": "address"
        }
      ],
      "name": "grantRole",
      "outputs": [],
      "stateMutability": "nonpayable",
      "type": "function"
    },
    {
      "inputs": [
        {
          "internalType": "bytes32",
          "name": "role",
          "type": "bytes32"
        },
        {
          "internalType": "address",
          "name": "account",
          "type": "address"
        }
      ],
      "name": "hasRole",
      "outputs": [
        {
          "internalType": "bool",
          "name": "",
          "type": "bool"
        }
      ],
      "stateMutability": "view",
      "type": "function"
    },
    {
      "inputs": [
        {
          "internalType": "address",
          "name": "owner",
          "type": "address"
        },
        {
          "internalType": "address",
          "name": "operator",
          "type": "address"
        }
      ],
      "name": "isApprovedForAll",
      "outputs": [
        {
          "internalType": "bool",
          "name": "",
          "type": "bool"
        }
      ],
      "stateMutability": "view",
      "type": "function"
    },
    {
      "inputs": [],
      "name": "name",
      "outputs": [
        {
          "internalType": "string",
          "name": "",
          "type": "string"
        }
      ],
      "stateMutability": "view",
      "type": "function"
    },
    {
      "inputs": [
        {
          "internalType": "uint256",
          "name": "tokenId",
          "type": "uint256"
        }
      ],
      "name": "ownerOf",
      "outputs": [
        {
          "internalType": "address",
          "name": "",
          "type": "address"
        }
      ],
      "stateMutability": "view",
      "type": "function"
    },
    {
      "inputs": [],
      "name": "pause",
      "outputs": [],
      "stateMutability": "nonpayable",
      "type": "function"
    },
    {
      "inputs": [],
      "name": "paused",
      "outputs": [
        {
          "internalType": "bool",
          "name": "",
          "type": "bool"
        }
      ],
      "stateMutability": "view",
      "type": "function"
    },
    {
      "inputs": [
        {
          "internalType": "bytes32",
          "name": "role",
          "type": "bytes32"
        },
        {
          "internalType": "address",
          "name": "account",
          "type": "address"
        }
      ],
      "name": "renounceRole",
      "outputs": [],
      "stateMutability": "nonpayable",
      "type": "function"
    },
    {
      "inputs": [
        {
          "internalType": "bytes32",
          "name": "role",
          "type": "bytes32"
        },
        {
          "internalType": "address",
          "name": "account",
          "type": "address"
        }
      ],
      "name": "revokeRole",
      "outputs": [],
      "stateMutability": "nonpayable",
      "type": "function"
    },
    {
      "inputs": [
        {
          "internalType": "address",
          "name": "to",
          "type": "address"
        },
        {
          "internalType": "string",
          "name": "uri",
          "type": "string"
        }
      ],
      "name": "safeMint",
      "outputs": [],
      "stateMutability": "nonpayable",
      "type": "function"
    },
    {
      "inputs": [
        {
          "internalType": "address",
          "name": "from",
          "type": "address"
        },
        {
          "internalType": "address",
          "name": "to",
          "type": "address"
        },
        {
          "internalType": "uint256",
          "name": "tokenId",
          "type": "uint256"
        }
      ],
      "name": "safeTransferFrom",
      "outputs": [],
      "stateMutability": "nonpayable",
      "type": "function"
    },
    {
      "inputs": [
        {
          "internalType": "address",
          "name": "from",
          "type": "address"
        },
        {
          "internalType": "address",
          "name": "to",
          "type": "address"
        },
        {
          "internalType": "uint256",
          "name": "tokenId",
          "type": "uint256"
        },
        {
          "internalType": "bytes",
          "name": "data",
          "type": "bytes"
        }
      ],
      "name": "safeTransferFrom",
      "outputs": [],
      "stateMutability": "nonpayable",
      "type": "function"
    },
    {
      "inputs": [
        {
          "internalType": "address",
          "name": "operator",
          "type": "address"
        },
        {
          "internalType": "bool",
          "name": "approved",
          "type": "bool"
        }
      ],
      "name": "setApprovalForAll",
      "outputs": [],
      "stateMutability": "nonpayable",
      "type": "function"
    },
    {
      "inputs": [
        {
          "internalType": "bytes4",
          "name": "interfaceId",
          "type": "bytes4"
        }
      ],
      "name": "supportsInterface",
      "outputs": [
        {
          "internalType": "bool",
          "name": "",
          "type": "bool"
        }
      ],
      "stateMutability": "view",
      "type": "function"
    },
    {
      "inputs": [],
      "name": "symbol",
      "outputs": [
        {
          "internalType": "string",
          "name": "",
          "type": "string"
        }
      ],
      "stateMutability": "view",
      "type": "function"
    },
    {
      "inputs": [
        {
          "internalType": "uint256",
          "name": "tokenId",
          "type": "uint256"
        }
      ],
      "name": "tokenURI",
      "outputs": [
        {
          "internalType": "string",
          "name": "",
          "type": "string"
        }
      ],
      "stateMutability": "view",
      "type": "function"
    },
    {
      "inputs": [
        {
          "internalType": "address",
          "name": "from",
          "type": "address"
        },
        {
          "internalType": "address",
          "name": "to",
          "type": "address"
        },
        {
          "internalType": "uint256",
          "name": "tokenId",
          "type": "uint256"
        }
      ],
      "name": "transferFrom",
      "outputs": [],
      "stateMutability": "nonpayable",
      "type": "function"
    },
    {
      "inputs": [],
      "name": "unpause",
      "outputs": [],
      "stateMutability": "nonpayable",
      "type": "function"
    }
  ],
  "bytecode": "0x60806040523480156200001157600080fd5b506040518060400160405280600c81526020016b111a5c1b1bdb5851dd5a5b1960a21b8152506040518060400160405280600381526020016244494760e81b815250816000908162000064919062000235565b50600162000073828262000235565b50506007805460ff19169055506200008d600033620000eb565b620000b97f65d7a28e3265b37a6474929f336521b332c1681b933f6cb9f3376673440d862a33620000eb565b620000e57f9f2df0fed2c77648de5860a4cc508cd0818c85b8b8a1ab4ceeef8d981c8956a633620000eb565b62000301565b60008281526008602090815260408083206001600160a01b038516845290915290205460ff166200018c5760008281526008602090815260408083206001600160a01b03851684529091529020805460ff191660011790556200014b3390565b6001600160a01b0316816001600160a01b0316837f2f8788117e7eff1d82e926ec794901d17c78024a50270940304540a733656f0d60405160405180910390a45b5050565b634e487b7160e01b600052604160045260246000fd5b600181811c90821680620001bb57607f821691505b602082108103620001dc57634e487b7160e01b600052602260045260246000fd5b50919050565b601f8211156200023057600081815260208120601f850160051c810160208610156200020b5750805b601f850160051c820191505b818110156200022c5782815560010162000217565b5050505b505050565b81516001600160401b0381111562000251576200025162000190565b6200026981620002628454620001a6565b84620001e2565b602080601f831160018114620002a15760008415620002885750858301515b600019600386901b1c1916600185901b1785556200022c565b600085815260208120601f198616915b82811015620002d257888601518255948401946001909101908401620002b1565b5085821015620002f15787850151600019600388901b60f8161c191681555b5050505050600190811b01905550565b6120b980620003116000396000f3fe608060405234801561001057600080fd5b506004361061018e5760003560e01c806370a08231116100de578063b88d4fde11610097578063d539139311610071578063d539139314610350578063d547741f14610377578063e63ab1e91461038a578063e985e9c5146103b157600080fd5b8063b88d4fde14610317578063c87b56dd1461032a578063d204c45e1461033d57600080fd5b806370a08231146102c65780638456cb59146102d957806391d14854146102e157806395d89b41146102f4578063a217fddf146102fc578063a22cb4651461030457600080fd5b80632f2ff15d1161014b57806342842e0e1161012557806342842e0e1461028257806342966c68146102955780635c975abb146102a85780636352211e146102b357600080fd5b80632f2ff15d1461025457806336568abe146102675780633f4ba83a1461027a57600080fd5b806301ffc9a71461019357806306fdde03146101bb578063081812fc146101d0578063095ea7b3146101fb57806323b872dd14610210578063248a9ca314610223575b600080fd5b6101a66101a13660046119ba565b6103ed565b60405190151581526020015b60405180910390f35b6101c36103fe565b6040516101b29190611a27565b6101e36101de366004611a3a565b610490565b6040516001600160a01b0390911681526020016101b2565b61020e610209366004611a6f565b6104b7565b005b61020e61021e366004611a99565b6105d1565b610246610231366004611a3a565b60009081526008602052604090206001015490565b6040519081526020016101b2565b61020e610262366004611ad5565b610603565b61020e610275366004611ad5565b610628565b61020e6106a6565b61020e610290366004611a99565b6106db565b61020e6102a3366004611a3a565b6106f6565b60075460ff166101a6565b6101e36102c1366004611a3a565b610724565b6102466102d4366004611b01565b610784565b61020e61080a565b6101a66102ef366004611ad5565b61083c565b6101c3610867565b610246600081565b61020e610312366004611b1c565b610876565b61020e610325366004611be4565b610881565b6101c3610338366004611a3a565b6108b9565b61020e61034b366004611c60565b6108c4565b6102467f9f2df0fed2c77648de5860a4cc508cd0818c85b8b8a1ab4ceeef8d981c8956a681565b61020e610385366004611ad5565b61091d565b6102467f65d7a28e3265b37a6474929f336521b332c1681b933f6cb9f3376673440d862a81565b6101a66103bf366004611cc2565b6001600160a01b03918216600090815260056020908152604080832093909416825291909152205460ff1690565b60006103f882610942565b92915050565b60606000805461040d90611cec565b80601f016020809104026020016040519081016040528092919081815260200182805461043990611cec565b80156104865780601f1061045b57610100808354040283529160200191610486565b820191906000526020600020905b81548152906001019060200180831161046957829003601f168201915b5050505050905090565b600061049b82610967565b506000908152600460205260409020546001600160a01b031690565b60006104c282610724565b9050806001600160a01b0316836001600160a01b0316036105345760405162461bcd60e51b815260206004820152602160248201527f4552433732313a20617070726f76616c20746f2063757272656e74206f776e656044820152603960f91b60648201526084015b60405180910390fd5b336001600160a01b0382161480610550575061055081336103bf565b6105c25760405162461bcd60e51b815260206004820152603d60248201527f4552433732313a20617070726f76652063616c6c6572206973206e6f7420746f60448201527f6b656e206f776e6572206f7220617070726f76656420666f7220616c6c000000606482015260840161052b565b6105cc83836109c6565b505050565b6105dc335b82610a34565b6105f85760405162461bcd60e51b815260040161052b90611d26565b6105cc838383610ab3565b60008281526008602052604090206001015461061e81610c24565b6105cc8383610c2e565b6001600160a01b03811633146106985760405162461bcd60e51b815260206004820152602f60248201527f416363657373436f6e74726f6c3a2063616e206f6e6c792072656e6f756e636560448201526e103937b632b9903337b91039b2b63360891b606482015260840161052b565b6106a28282610cb4565b5050565b7f65d7a28e3265b37a6474929f336521b332c1681b933f6cb9f3376673440d862a6106d081610c24565b6106d8610d1b565b50565b6105cc83838360405180602001604052806000815250610881565b6106ff336105d6565b61071b5760405162461bcd60e51b815260040161052b90611d26565b6106d881610d6d565b6000818152600260205260408120546001600160a01b0316806103f85760405162461bcd60e51b8152602060048201526018602482015277115490cdcc8c4e881a5b9d985b1a59081d1bdad95b88125160421b604482015260640161052b565b60006001600160a01b0382166107ee5760405162461bcd60e51b815260206004820152602960248201527f4552433732313a2061646472657373207a65726f206973206e6f7420612076616044820152683634b21037bbb732b960b91b606482015260840161052b565b506001600160a01b031660009081526003602052604090205490565b7f65d7a28e3265b37a6474929f336521b332c1681b933f6cb9f3376673440d862a61083481610c24565b6106d8610d76565b60009182526008602090815260408084206001600160a01b0393909316845291905290205460ff1690565b60606001805461040d90611cec565b6106a2338383610db3565b61088b3383610a34565b6108a75760405162461bcd60e51b815260040161052b90611d26565b6108b384848484610e81565b50505050565b60606103f882610eb4565b7f9f2df0fed2c77648de5860a4cc508cd0818c85b8b8a1ab4ceeef8d981c8956a66108ee81610c24565b60006108f960095490565b9050610909600980546001019055565b6109138482610fbc565b6108b38184610fd6565b60008281526008602052604090206001015461093881610c24565b6105cc8383610cb4565b60006001600160e01b03198216637965db0b60e01b14806103f857506103f882611069565b6000818152600260205260409020546001600160a01b03166106d85760405162461bcd60e51b8152602060048201526018602482015277115490cdcc8c4e881a5b9d985b1a59081d1bdad95b88125160421b604482015260640161052b565b600081815260046020526040902080546001600160a01b0319166001600160a01b03841690811790915581906109fb82610724565b6001600160a01b03167f8c5be1e5ebec7d5bd14f71427d1e84f3dd0314c0f7b2291e5b200ac8c7c3b92560405160405180910390a45050565b600080610a4083610724565b9050806001600160a01b0316846001600160a01b03161480610a8757506001600160a01b0380821660009081526005602090815260408083209388168352929052205460ff165b80610aab5750836001600160a01b0316610aa084610490565b6001600160a01b0316145b949350505050565b826001600160a01b0316610ac682610724565b6001600160a01b031614610aec5760405162461bcd60e51b815260040161052b90611d73565b6001600160a01b038216610b4e5760405162461bcd60e51b8152602060048201526024808201527f4552433732313a207472616e7366657220746f20746865207a65726f206164646044820152637265737360e01b606482015260840161052b565b610b5b83838360016110b9565b826001600160a01b0316610b6e82610724565b6001600160a01b031614610b945760405162461bcd60e51b815260040161052b90611d73565b600081815260046020908152604080832080546001600160a01b03199081169091556001600160a01b0387811680865260038552838620805460001901905590871680865283862080546001019055868652600290945282852080549092168417909155905184937fddf252ad1be2c89b69c2b068fc378daa952ba7f163c4a11628f55a4df523b3ef91a4505050565b6106d8813361112f565b610c38828261083c565b6106a25760008281526008602090815260408083206001600160a01b03851684529091529020805460ff19166001179055610c703390565b6001600160a01b0316816001600160a01b0316837f2f8788117e7eff1d82e926ec794901d17c78024a50270940304540a733656f0d60405160405180910390a45050565b610cbe828261083c565b156106a25760008281526008602090815260408083206001600160a01b0385168085529252808320805460ff1916905551339285917ff6391f5c32d9c69d2a47ea670b442974b53935d1edc7fd64eb21e047a839171b9190a45050565b610d23611188565b6007805460ff191690557f5db9ee0a495bf2e6ff9c91a7834c1ba4fdd244a5e8aa4e537bd38aeae4b073aa335b6040516001600160a01b03909116815260200160405180910390a1565b6106d8816111d3565b610d7e611213565b6007805460ff191660011790557f62e78cea01bee320cd4e420270b5ea74000d11b0c9f74754ebdbfc544b05a258610d503390565b816001600160a01b0316836001600160a01b031603610e145760405162461bcd60e51b815260206004820152601960248201527f4552433732313a20617070726f766520746f2063616c6c657200000000000000604482015260640161052b565b6001600160a01b03838116600081815260056020908152604080832094871680845294825291829020805460ff191686151590811790915591519182527f17307eab39ab6107e8899845ad3d59bd9653f200f220920489ca2b5937696c31910160405180910390a3505050565b610e8c848484610ab3565b610e9884848484611259565b6108b35760405162461bcd60e51b815260040161052b90611db8565b6060610ebf82610967565b60008281526006602052604081208054610ed890611cec565b80601f0160208091040260200160405190810160405280929190818152602001828054610f0490611cec565b8015610f515780601f10610f2657610100808354040283529160200191610f51565b820191906000526020600020905b815481529060010190602001808311610f3457829003601f168201915b505050505090506000610f6f60408051602081019091526000815290565b90508051600003610f81575092915050565b815115610fb3578082604051602001610f9b929190611e0a565b60405160208183030381529060405292505050919050565b610aab8461135a565b6106a28282604051806020016040528060008152506113ce565b6000828152600260205260409020546001600160a01b03166110515760405162461bcd60e51b815260206004820152602e60248201527f45524337323155524953746f726167653a2055524920736574206f66206e6f6e60448201526d32bc34b9ba32b73a103a37b5b2b760911b606482015260840161052b565b60008281526006602052604090206105cc8282611e87565b60006001600160e01b031982166380ac58cd60e01b148061109a57506001600160e01b03198216635b5e139f60e01b145b806103f857506301ffc9a760e01b6001600160e01b03198316146103f8565b6110c1611213565b6001600160a01b03841615806110de57506001600160a01b038316155b61112a5760405162461bcd60e51b815260206004820181905260248201527f54686973204469706c6f6d61206973206e6f74207472616e7366657261626c65604482015260640161052b565b6108b3565b611139828261083c565b6106a25761114681611401565b611151836020611413565b604051602001611162929190611f47565b60408051601f198184030181529082905262461bcd60e51b825261052b91600401611a27565b60075460ff166111d15760405162461bcd60e51b815260206004820152601460248201527314185d5cd8589b194e881b9bdd081c185d5cd95960621b604482015260640161052b565b565b6111dc816115af565b600081815260066020526040902080546111f590611cec565b1590506106d85760008181526006602052604081206106d891611956565b60075460ff16156111d15760405162461bcd60e51b815260206004820152601060248201526f14185d5cd8589b194e881c185d5cd95960821b604482015260640161052b565b60006001600160a01b0384163b1561134f57604051630a85bd0160e11b81526001600160a01b0385169063150b7a029061129d903390899088908890600401611fbc565b6020604051808303816000875af19250505080156112d8575060408051601f3d908101601f191682019092526112d591810190611ff9565b60015b611335573d808015611306576040519150601f19603f3d011682016040523d82523d6000602084013e61130b565b606091505b50805160000361132d5760405162461bcd60e51b815260040161052b90611db8565b805181602001fd5b6001600160e01b031916630a85bd0160e11b149050610aab565b506001949350505050565b606061136582610967565b600061137c60408051602081019091526000815290565b9050600081511161139c57604051806020016040528060008152506113c7565b806113a684611652565b6040516020016113b7929190611e0a565b6040516020818303038152906040525b9392505050565b6113d883836116e5565b6113e56000848484611259565b6105cc5760405162461bcd60e51b815260040161052b90611db8565b60606103f86001600160a01b03831660145b6060600061142283600261202c565b61142d906002612043565b67ffffffffffffffff81111561144557611445611b58565b6040519080825280601f01601f19166020018201604052801561146f576020820181803683370190505b509050600360fc1b8160008151811061148a5761148a612056565b60200101906001600160f81b031916908160001a905350600f60fb1b816001815181106114b9576114b9612056565b60200101906001600160f81b031916908160001a90535060006114dd84600261202c565b6114e8906001612043565b90505b6001811115611560576f181899199a1a9b1b9c1cb0b131b232b360811b85600f166010811061151c5761151c612056565b1a60f81b82828151811061153257611532612056565b60200101906001600160f81b031916908160001a90535060049490941c936115598161206c565b90506114eb565b5083156113c75760405162461bcd60e51b815260206004820181905260248201527f537472696e67733a20686578206c656e67746820696e73756666696369656e74604482015260640161052b565b60006115ba82610724565b90506115ca8160008460016110b9565b6115d382610724565b600083815260046020908152604080832080546001600160a01b03199081169091556001600160a01b0385168085526003845282852080546000190190558785526002909352818420805490911690555192935084927fddf252ad1be2c89b69c2b068fc378daa952ba7f163c4a11628f55a4df523b3ef908390a45050565b6060600061165f8361187e565b600101905060008167ffffffffffffffff81111561167f5761167f611b58565b6040519080825280601f01601f1916602001820160405280156116a9576020820181803683370190505b5090508181016020015b600019016f181899199a1a9b1b9c1cb0b131b232b360811b600a86061a8153600a85049450846116b357509392505050565b6001600160a01b03821661173b5760405162461bcd60e51b815260206004820181905260248201527f4552433732313a206d696e7420746f20746865207a65726f2061646472657373604482015260640161052b565b6000818152600260205260409020546001600160a01b0316156117a05760405162461bcd60e51b815260206004820152601c60248201527f4552433732313a20746f6b656e20616c7265616479206d696e74656400000000604482015260640161052b565b6117ae6000838360016110b9565b6000818152600260205260409020546001600160a01b0316156118135760405162461bcd60e51b815260206004820152601c60248201527f4552433732313a20746f6b656e20616c7265616479206d696e74656400000000604482015260640161052b565b6001600160a01b038216600081815260036020908152604080832080546001019055848352600290915280822080546001600160a01b0319168417905551839291907fddf252ad1be2c89b69c2b068fc378daa952ba7f163c4a11628f55a4df523b3ef908290a45050565b60008072184f03e93ff9f4daa797ed6e38ed64bf6a1f0160401b83106118bd5772184f03e93ff9f4daa797ed6e38ed64bf6a1f0160401b830492506040015b6d04ee2d6d415b85acef810000000083106118e9576d04ee2d6d415b85acef8100000000830492506020015b662386f26fc10000831061190757662386f26fc10000830492506010015b6305f5e100831061191f576305f5e100830492506008015b612710831061193357612710830492506004015b60648310611945576064830492506002015b600a83106103f85760010192915050565b50805461196290611cec565b6000825580601f10611972575050565b601f0160209004906000526020600020908101906106d891905b808211156119a0576000815560010161198c565b5090565b6001600160e01b0319811681146106d857600080fd5b6000602082840312156119cc57600080fd5b81356113c7816119a4565b60005b838110156119f25781810151838201526020016119da565b50506000910152565b60008151808452611a138160208601602086016119d7565b601f01601f19169290920160200192915050565b6020815260006113c760208301846119fb565b600060208284031215611a4c57600080fd5b5035919050565b80356001600160a01b0381168114611a6a57600080fd5b919050565b60008060408385031215611a8257600080fd5b611a8b83611a53565b946020939093013593505050565b600080600060608486031215611aae57600080fd5b611ab784611a53565b9250611ac560208501611a53565b9150604084013590509250925092565b60008060408385031215611ae857600080fd5b82359150611af860208401611a53565b90509250929050565b600060208284031215611b1357600080fd5b6113c782611a53565b60008060408385031215611b2f57600080fd5b611b3883611a53565b915060208301358015158114611b4d57600080fd5b809150509250929050565b634e487b7160e01b600052604160045260246000fd5b600067ffffffffffffffff80841115611b8957611b89611b58565b604051601f8501601f19908116603f01168101908282118183101715611bb157611bb1611b58565b81604052809350858152868686011115611bca57600080fd5b858560208301376000602087830101525050509392505050565b60008060008060808587031215611bfa57600080fd5b611c0385611a53565b9350611c1160208601611a53565b925060408501359150606085013567ffffffffffffffff811115611c3457600080fd5b8501601f81018713611c4557600080fd5b611c5487823560208401611b6e565b91505092959194509250565b60008060408385031215611c7357600080fd5b611c7c83611a53565b9150602083013567ffffffffffffffff811115611c9857600080fd5b8301601f81018513611ca957600080fd5b611cb885823560208401611b6e565b9150509250929050565b60008060408385031215611cd557600080fd5b611cde83611a53565b9150611af860208401611a53565b600181811c90821680611d0057607f821691505b602082108103611d2057634e487b7160e01b600052602260045260246000fd5b50919050565b6020808252602d908201527f4552433732313a2063616c6c6572206973206e6f7420746f6b656e206f776e6560408201526c1c881bdc88185c1c1c9bdd9959609a1b606082015260800190565b60208082526025908201527f4552433732313a207472616e736665722066726f6d20696e636f72726563742060408201526437bbb732b960d91b606082015260800190565b60208082526032908201527f4552433732313a207472616e7366657220746f206e6f6e20455243373231526560408201527131b2b4bb32b91034b6b83632b6b2b73a32b960711b606082015260800190565b60008351611e1c8184602088016119d7565b835190830190611e308183602088016119d7565b01949350505050565b601f8211156105cc57600081815260208120601f850160051c81016020861015611e605750805b601f850160051c820191505b81811015611e7f57828155600101611e6c565b505050505050565b815167ffffffffffffffff811115611ea157611ea1611b58565b611eb581611eaf8454611cec565b84611e39565b602080601f831160018114611eea5760008415611ed25750858301515b600019600386901b1c1916600185901b178555611e7f565b600085815260208120601f198616915b82811015611f1957888601518255948401946001909101908401611efa565b5085821015611f375787850151600019600388901b60f8161c191681555b5050505050600190811b01905550565b7f416363657373436f6e74726f6c3a206163636f756e7420000000000000000000815260008351611f7f8160178501602088016119d7565b7001034b99036b4b9b9b4b733903937b6329607d1b6017918401918201528351611fb08160288401602088016119d7565b01602801949350505050565b6001600160a01b0385811682528416602082015260408101839052608060608201819052600090611fef908301846119fb565b9695505050505050565b60006020828403121561200b57600080fd5b81516113c7816119a4565b634e487b7160e01b600052601160045260246000fd5b80820281158282048414176103f8576103f8612016565b808201808211156103f8576103f8612016565b634e487b7160e01b600052603260045260246000fd5b60008161207b5761207b612016565b50600019019056fea26469706673582212204614b5d6f60ce78bdf371f576783f74acf3975d5ffd777e2d2b2b81904d103d164736f6c63430008120033",
  "linkReferences": {},
  "deployedLinkReferences": {}
}